:020000040000FA
:040000008BEF00F092
:020004000000FA
:0400080009EF01F00B
:0800180010003C2020202020F4
:100020005354415254202020203E00003C202020E8
:1000300044415441204C4F472020203E0000494E6F
:100040005350454354494E472E2020202020000085
:10005000494E5350454354494E472E2E20202020D0
:100060000000494E5350454354494E472E2E2E20F2
:1000700020200000494E5350454354494E472E2EF0
:100080002E2E20200000494E5350454354494E47E0
:100090002E2E2E2E2E200000494E535045435449FB
:1000A0004E472E2E2E2E2E2E00002D2D2D2D434F61
:1000B0004D504C4554452D2D2D2D00003C313E20FA
:1000C00020202053415645204441544100003C32F9
:1000D0003E494E535045435420414741494E00004C
:1000E0003C313E2020202020204441544120233117
:1000F00000003C323E20202020202044415441205A
:10010000233200003C333E20202020202044415454
:10011000412023330000926A936A946A956A966A32
:10012000806A816A826A836A846AA5EC00F0F0ECD6
:1001300000F0800EBFEC00F0000EF86E000EF76EBF
:100140001A0EF66EDFEC00F0FFD7FDEC00F0FDECD0
:1001500000F0330EBFEC00F0330EBFEC00F0330EB6
:10016000BFEC00F0280EBFEC00F00C0EBFEC00F06E
:10017000060EBFEC00F0010EBFEC00F012008394FD
:10018000206EE7EC00F08386000083962038E7ECD1
:1001900000F0838600008396FDEC00F0120083845B
:1001A000206EE7EC00F08386000083962038E7ECB1
:1001B00000F083860000839604EC01F01200080032
:1001C000F550CFEC00F00B00F550FBE1120083CFAF
:1001D00021F0F00B21120F09211621C083FF12001C
:1001E000C00EBFEC00F0010EBFEC00F0800EBFECC3
:1001F00000F0010EBFEC00F012006E0E266E04EC53
:1002000001F0262EFCD71200230E256E252EFED7D8
:040210001200FFD702
:020000040030CA
:0100010002FC
:010002001FDE
:010003001EDE
:010005008179
:010006008178
:010008000FE8
:01000900C036
:01000A000FE6
:01000B00E014
:01000C000FE4
:01000D0040B2
:00000001FF
