:020000040000FA
:040000008BEF00F092
:020004000000FA
:040008006FEF02F0A4
:0800180010003C2020202020F4
:100020005354415254202020203E00003C202020E8
:1000300044415441204C4F472020203E0000494E6F
:100040005350454354494E472E2020202020000085
:10005000494E5350454354494E472E2E20202020D0
:100060000000494E5350454354494E472E2E2E20F2
:1000700020200000494E5350454354494E472E2EF0
:100080002E2E20200000494E5350454354494E47E0
:100090002E2E2E2E2E200000494E535045435449FB
:1000A0004E472E2E2E2E2E2E00002D2D2D2D434F61
:1000B0004D504C4554452D2D2D2D00003C313E20FA
:1000C00020202053415645204441544100003C32F9
:1000D0003E494E535045435420414741494E00004C
:1000E0003C313E2020202020204441544120233117
:1000F00000003C323E20202020202044415441205A
:10010000233200003C333E20202020202044415454
:10011000412023330000926A936A946A956A966A32
:10012000806A816A826A836A846A0F0E946E0C0EFA
:10013000306E0BEC02F0B0EC00F082B4E4EC01F0B5
:1001400082B0C5EC01F082B2A6EC01F082B6A1EC5F
:1001500001F033B0B0EC00F0339082CF32F0EDD745
:1001600056EC02F0000E305CD8B4F9EC00F0010E51
:10017000305CD8B405EC01F0020E305CD8B411EC60
:1001800001F0030E305CD8B41DEC01F0040E305CBD
:10019000D8B429EC01F0050E305CD8B435EC01F090
:1001A000060E305CD8B441EC01F0070E305CD8B4D8
:1001B0004DEC01F0080E305CD8B459EC01F0090E9A
:1001C000305CD8B465EC01F00A0E305CD8B471EC48
:1001D00001F00B0E305CD8B47DEC01F00C0E305CFD
:1001E000D8B489EC01F00D0E305CD8B495EC01F078
:1001F0001200800E25EC02F0000EF86E000EF76E75
:100200001A0EF66E45EC02F01200800E25EC02F09C
:10021000000EF86E000EF76E2C0EF66E45EC02F036
:100220001200800E25EC02F0000EF86E000EF76E44
:100230003E0EF66E45EC02F01200800E25EC02F048
:10024000000EF86E000EF76E500EF66E45EC02F0E2
:100250001200800E25EC02F0000EF86E000EF76E14
:10026000620EF66E45EC02F01200800E25EC02F0F4
:10027000000EF86E000EF76E740EF66E45EC02F08E
:100280001200800E25EC02F0000EF86E000EF76EE4
:10029000860EF66E45EC02F01200800E25EC02F0A0
:1002A000000EF86E000EF76E980EF66E45EC02F03A
:1002B0001200800E25EC02F0000EF86E000EF76EB4
:1002C000AA0EF66E45EC02F01200800E25EC02F04C
:1002D000000EF86E000EF76EBC0EF66E45EC02F0E6
:1002E0001200800E25EC02F0000EF86E000EF76E84
:1002F000CE0EF66E45EC02F01200800E25EC02F0F8
:10030000000EF86E000EF76EE00EF66E45EC02F091
:100310001200800E25EC02F0000EF86E000EF76E53
:10032000F20EF66E45EC02F01200800E25EC02F0A3
:10033000000EF86E010EF76E040EF66E45EC02F03C
:10034000120032A61200306A3380120032A212006C
:10035000000E305CD8B4BAEF01F00B0E305CD8B4AC
:10036000BDEF01F00C0E305CD8B4C1EF01F012000B
:1003700033801200010E306EFBD789840C0E306E74
:10038000F7D789860D0E306EF3D732A01200010E1A
:10039000305CD8B4D9EF01F00C0E305CD8B4DCEF8F
:1003A00001F00D0E305CD8B4E0EF01F012003380A4
:1003B0001200000E306EFBD789800B0E306EF7D71F
:1003C00089820C0E306EF3D732A41200000E305C1E
:1003D000D8B402EF02F0010E305CD8B405EF02F0A1
:1003E0000B0E305CD8B408EF02F00C0E305CD8B4C1
:1003F00009EF02F00D0E305CD8B40AEF02F01200E3
:1004000033801200020E306EFBD70B0E306EF8D721
:10041000F7D7F6D7F5D763EC02F063EC02F0330EB2
:1004200025EC02F0330E25EC02F0330E25EC02F041
:10043000280E25EC02F00C0E25EC02F0060E25EC41
:1004400002F0010E25EC02F012008394206E4DECB8
:1004500002F083860000839620384DEC02F08386FC
:100460000000839663EC02F012008384206E4DEC52
:1004700002F083860000839620384DEC02F08386DC
:10048000000083966AEC02F012000800F55035EC8B
:1004900002F00B00F550FBE1120083CF21F0F00BCE
:1004A00021120F09211621C083FF1200C00E25EC76
:1004B00002F0010E25EC02F0800E25EC02F0010E98
:1004C00025EC02F012006E0E266E6AEC02F0262E6B
:1004D000FCD71200230E256E252EFED71200FFD763
:020000040030CA
:0100010002FC
:010002001FDE
:010003001EDE
:010005008179
:010006008178
:010008000FE8
:01000900C036
:01000A000FE6
:01000B00E014
:01000C000FE4
:01000D0040B2
:00000001FF
