:020000040000FA
:040000008BEF00F092
:020004000000FA
:0400080071EF02F0A2
:0800180010003C2020202020F4
:100020005354415254202020203E00003C202020E8
:1000300044415441204C4F472020203E0000494E6F
:100040005350454354494E472E2020202020000085
:10005000494E5350454354494E472E2E20202020D0
:100060000000494E5350454354494E472E2E2E20F2
:1000700020200000494E5350454354494E472E2EF0
:100080002E2E20200000494E5350454354494E47E0
:100090002E2E2E2E2E200000494E535045435449FB
:1000A0004E472E2E2E2E2E2E00002D2D2D2D434F61
:1000B0004D504C4554452D2D2D2D00003C313E20FA
:1000C00020202053415645204441544100003C32F9
:1000D0003E494E535045435420414741494E00004C
:1000E0003C313E2020202020204441544120233117
:1000F00000003C323E20202020202044415441205A
:10010000233200003C333E20202020202044415454
:10011000412023330000926A936A946A956A966A32
:10012000806A816A826A836A846A0F0E946E0C0EFA
:10013000306E0DEC02F0B2EC00F082B4E6EC01F0AF
:1001400082B0C7EC01F082B2A8EC01F082B6A3EC59
:1001500001F033B0B2EC00F0339082CF32F032C015
:100160008AFFEBD758EC02F0000E305CD8B4FBEC01
:1001700000F0010E305CD8B407EC01F0020E305CE8
:10018000D8B413EC01F0030E305CD8B41FEC01F0CE
:10019000040E305CD8B42BEC01F0050E305CD8B402
:1001A00037EC01F0060E305CD8B443EC01F0070EDA
:1001B000305CD8B44FEC01F0080E305CD8B45BEC86
:1001C00001F0090E305CD8B467EC01F00A0E305C27
:1001D000D8B473EC01F00B0E305CD8B47FEC01F0B6
:1001E0000C0E305CD8B48BEC01F00D0E305CD8B442
:1001F00097EC01F01200800E27EC02F0000EF86E72
:10020000000EF76E1A0EF66E47EC02F01200800E2A
:1002100027EC02F0000EF86E000EF76E2C0EF66E54
:1002200047EC02F01200800E27EC02F0000EF86E90
:10023000000EF76E3E0EF66E47EC02F01200800ED6
:1002400027EC02F0000EF86E000EF76E500EF66E00
:1002500047EC02F01200800E27EC02F0000EF86E60
:10026000000EF76E620EF66E47EC02F01200800E82
:1002700027EC02F0000EF86E000EF76E740EF66EAC
:1002800047EC02F01200800E27EC02F0000EF86E30
:10029000000EF76E860EF66E47EC02F01200800E2E
:1002A00027EC02F0000EF86E000EF76E980EF66E58
:1002B00047EC02F01200800E27EC02F0000EF86E00
:1002C000000EF76EAA0EF66E47EC02F01200800EDA
:1002D00027EC02F0000EF86E000EF76EBC0EF66E04
:1002E00047EC02F01200800E27EC02F0000EF86ED0
:1002F000000EF76ECE0EF66E47EC02F01200800E86
:1003000027EC02F0000EF86E000EF76EE00EF66EAF
:1003100047EC02F01200800E27EC02F0000EF86E9F
:10032000000EF76EF20EF66E47EC02F01200800E31
:1003300027EC02F0000EF86E010EF76E040EF66E5A
:1003400047EC02F0120032B61200306A338012001D
:1003500032B21200000E305CD8B4BCEF01F00B0ECC
:10036000305CD8B4BFEF01F00C0E305CD8B4C3EFF2
:1003700001F0120033801200010E306EFBD7898429
:100380000C0E306EF7D789860D0E306EF3D732B073
:100390001200010E305CD8B4DBEF01F00C0E305CC3
:1003A000D8B4DEEF01F00D0E305CD8B4E2EF01F00E
:1003B000120033801200000E306EFBD789800B0EC6
:1003C000306EF7D789820C0E306EF3D732B412003C
:1003D000000E305CD8B404EF02F0010E305CD8B4EB
:1003E00007EF02F00B0E305CD8B40AEF02F00C0EEF
:1003F000305CD8B40BEF02F00D0E305CD8B40CEFCB
:1004000002F0120033801200020E306EFBD70B0E8A
:10041000306EF8D7F7D7F6D7F5D765EC02F065EC74
:1004200002F0330E27EC02F0330E27EC02F0330E0D
:1004300027EC02F0280E27EC02F00C0E27EC02F05D
:10044000060E27EC02F0010E27EC02F01200839456
:10045000206E4FEC02F083860000839620384FEC2C
:1004600002F083860000839665EC02F0120083841C
:10047000206E4FEC02F083860000839620384FEC0C
:1004800002F08386000083966CEC02F012000800F4
:10049000F55037EC02F00B00F550FBE1120083CF72
:1004A00021F0F00B21120F09211621C083FF120049
:1004B000C00E27EC02F0010E27EC02F0800E27ECB4
:1004C00002F0010E27EC02F012006E0E266E6CECAC
:1004D00002F0262EFCD71200230E256E252EFED705
:0404E0001200FFD730
:020000040030CA
:0100010002FC
:010002001FDE
:010003001EDE
:010005008179
:010006008178
:010008000FE8
:01000900C036
:01000A000FE6
:01000B00E014
:01000C000FE4
:01000D0040B2
:00000001FF
