:020000040000FA
:04000000CAEF00F053
:020004000000FA
:04000800ECEF05F024
:080018001000202020202053DD
:100020005441525420202020203E00003C2020201B
:1000300044415441204C4F472020203E00003C20AA
:100040005245534554204D454D4F5259203E0000D6
:100050003C2053455420444154452F54494D45209C
:100060000000494E5350454354494E472E2020200E
:1000700020200000494E5350454354494E472E2EF0
:10008000202020200000494E5350454354494E47FC
:100090002E2E2E2020200000494E53504543544917
:1000A0004E472E2E2E2E20200000494E5350454301
:1000B00054494E472E2E2E2E2E200000494E5350CE
:1000C000454354494E472E2E2E2E2E2E00002D2D08
:1000D0002D2D434F4D504C4554452D2D2D2D0000B9
:1000E0002020205341564520444154412020203EA9
:1000F00000003C494E535045435420414741494E2E
:100100002020000020202020204441544120233181
:100110002020203E00003C2020202044415441204B
:1001200023322020203E00003C2020202044415447
:100130004120233320202020000020415245205917
:100140004F5520535552453F202000004E554D201D
:1001500042415252454C5320202020200000424171
:100160005252454C2044495354414E4345200000CF
:1001700042415252454C204845494748542020208E
:1001800000005741544552204C4556454C202020F4
:1001900020200000926A936A946A956A966A806A3F
:1001A000816A826A836A846A948AFF0E956E968059
:1001B00096829684256A266A276A286A296A2A6AA4
:1001C0002B6A2C6A2D6A2E6A2F6A316A68EC05F058
:1001D000FC0E306EA0EC01F082CF3BF083CF36F006
:1001E00084CF38F0010E315CD8B426EC01F0020E59
:1001F000315CD8B442EC01F0040E315CD8B482EC2E
:1002000001F0080E315CD8B496EC01F0100E315CB0
:10021000D8B48CEC01F036C032F032B4D6EC04F035
:1002200032B083EC04F032B230EC04F032B690EC31
:1002300003F034B0A0EC01F034903BC03CF036C089
:1002400037F038C039F032C033F0C6D7282AFF0E55
:10025000285CD8A41200286A2C2AFF0E2C5CD8A493
:1002600012002C6A2D2A040E2D5CD8A412002D6ACF
:10027000110E355CD8B83FEC01F03A061200010EC1
:100280003A6E12008992F10E275CD8B408D03C0E69
:10029000275CD8B401D008D089808A8005D08B80B3
:1002A000000E276E899000D0272A00D084A003D0AA
:1002B000040E316E1FD038A21DD039B21BD054C0ED
:1002C000EEFF84A401D003D0E6808B8403D0E690B7
:1002D0008B9400D036A808D036AA08D009D036AC06
:1002E00003D036AE03D004D0DE8004D0DE8202D04C
:1002F000DE8400D069EC02F03BAA12003CBA120086
:10030000542A1200899089828A823BA2F3D73CB298
:10031000F1D7080E316EEED7899089828A923BA27E
:10032000E9D73CB2E7D7020E316EE4D789808A80E4
:100330008992E0D789808A90899269EC02F0120054
:10034000BAEC05F0FC0E305CD8B439EC02F0FD0ECE
:10035000305CD8B445EC02F0FE0E305CD8B451EC01
:1003600002F0FF0E305CD8B45DEC02F0C00E305CE1
:10037000D8B488EC02F0C10E305CD8B494EC02F032
:10038000C20E305CD8B4A0EC02F0C30E305CD8B41E
:10039000ACEC02F0C40E305CD8B4B8EC02F0C50E80
:1003A000305CD8B4C4EC02F0C60E305CD8B4D0ECEB
:1003B00002F0C70E305CD8B4DCEC02F0C80E305C42
:1003C000D8B4E8EC02F0D00E305CD8B4F4EC02F013
:1003D000D10E305CD8B400EC03F0D20E305CD8B44F
:1003E0000CEC03F0E00E305CD8B418EC03F0F00E27
:1003F000305CD8B424EC03F0400E305CD8B425EC6B
:1004000003F0410E305CD8B431EC03F0420E305CA6
:10041000D8B43DEC03F0430E305CD8B484EC03F068
:10042000440E305CD8B425EC03F0450E305CD8B4F3
:1004300031EC03F0460E305CD8B43DEC03F0470ECF
:10044000305CD8B484EC03F0480E305CD8B425ECB2
:1004500003F0490E305CD8B431EC03F04A0E305C46
:10046000D8B43DEC03F04B0E305CD8B484EC03F010
:100470001200C00E94EC05F0000EF86E000EF76E40
:100480001A0EF66EACEC05F01200800E94EC05F03E
:10049000000EF86E000EF76E2C0EF66EACEC05F04A
:1004A0001200800E94EC05F0000EF86E000EF76E50
:1004B0003E0EF66EACEC05F01200800E94EC05F0EA
:1004C000000EF86E000EF76E500EF66EACEC05F0F6
:1004D0001200292AFF0E295CD8A41200296A2A2AB0
:1004E0003F0E2A5CD8A412002A6A2B2A020E2B5C2B
:1004F000D8A412002B6AC50E305CD8B404D0302AC0
:10050000A0EC01F01200C00E306EA0EC01F0120061
:10051000800E94EC05F0000EF86E000EF76E620E81
:10052000F66EACEC05F01200800E94EC05F0000EB7
:10053000F86E000EF76E740EF66EACEC05F012005D
:10054000800E94EC05F0000EF86E000EF76E860E2D
:10055000F66EACEC05F01200800E94EC05F0000E87
:10056000F86E000EF76E980EF66EACEC05F0120009
:10057000800E94EC05F0000EF86E000EF76EAA0ED9
:10058000F66EACEC05F01200800E94EC05F0000E57
:10059000F86E000EF76EBC0EF66EACEC05F01200B5
:1005A000800E94EC05F0000EF86E000EF76ECE0E85
:1005B000F66EACEC05F01200800E94EC05F0000E27
:1005C000F86E000EF76EE00EF66EACEC05F0120061
:1005D000800E94EC05F0000EF86E000EF76EF20E31
:1005E000F66EACEC05F01200800E94EC05F0000EF7
:1005F000F86E010EF76E040EF66EACEC05F012000C
:10060000800E94EC05F0000EF86E010EF76E160EDB
:10061000F66EACEC05F01200800E94EC05F0000EC6
:10062000F86E010EF76E280EF66EACEC05F01200B7
:10063000800E94EC05F0000EF86E010EF76E3A0E87
:10064000F66EACEC05F012001200800E94EC05F092
:10065000000EF86E010EF76E4C0EF66EACEC05F067
:100660001200800E94EC05F0000EF86E010EF76E8D
:100670005E0EF66EACEC05F01200800E94EC05F008
:10068000000EF86E010EF76E700EF66EACEC05F013
:100690003AC035F0030E526E52C053F07F0E516EC9
:1006A0004F0E506E31EC05F03550800994EC05F09A
:1006B0006850300FA0EC05F0352A3550800994ECD5
:1006C00005F06950300FA0EC05F0352A355080094F
:1006D00094EC05F06A50300FA0EC05F0352A355047
:1006E000800994EC05F0630EA0EC05F0352A355036
:1006F000800994EC05F06D0EA0EC05F0352A352A42
:100700005132532ECDD71200800E94EC05F0000E1E
:10071000F86E010EF76E820EF66EACEC05F012006C
:1007200033B61200C00E305CD8B42CEF04F0C10E0A
:10073000305CD8B42CEF04F0C20E305CD8B42CEF8F
:1007400004F0C30E305CD8B42CEF04F0C40E305C5F
:10075000D8B42CEF04F0C50E305CD8B42CEF04F004
:10076000C70E305CD8B42CEF04F0C80E305CD8B49F
:100770002CEF04F0D00E305CD8B412EF04F0D10EA0
:10078000305CD8B412EF04F0D30E305CD8B412EF62
:1007900004F0E00E305CD8B412EF04F0F00E305CE0
:1007A000D8B412EF04F0400E305CD8B41EEF04F061
:1007B000410E305CD8B41EEF04F0420E305CD8B469
:1007C0001EEF04F0430E305CD8B41EEF04F0500E60
:1007D000305CD8B41EEF04F0510E305CD8B41EEF7C
:1007E00004F0520E305CD8B41EEF04F0530E305CAF
:1007F000D8B41EEF04F0600E305CD8B41EEF04F0E5
:10080000610E305CD8B41EEF04F0620E305CD8B4D8
:100810001EEF04F0630E305CD8B41EEF04F012003B
:1008200034801200040E206ED88030322006000E74
:10083000205CD8A414EF04F010EF04F0000E316E29
:10084000020E206ED88030322006000E205CD8A424
:1008500022EF04F010EF04F0000E316E12EF04F0FE
:1008600033B21200FC0E305CD8B480EF04F0FD0E01
:10087000305CD8B480EF04F0FE0E305CD8B480EF6A
:1008800004F0C70E305CD8B480EF04F0D00E305CBA
:10089000D8B480EF04F0D10E305CD8B480EF04F00F
:1008A000400E305CD8B480EF04F0410E305CD8B418
:1008B00080EF04F0420E305CD8B480EF04F0440EB8
:1008C000305CD8B480EF04F0450E305CD8B480EFD3
:1008D00004F0460E305CD8B480EF04F0480E305C73
:1008E000D8B480EF04F0490E305CD8B480EF04F047
:1008F0004A0E305CD8B480EF04F01200348012004D
:10090000302A7EEF04F033B01200FD0E305CD8B414
:10091000D3EF04F0FE0E305CD8B4D3EF04F0FF0E3A
:10092000305CD8B4D3EF04F0C80E305CD8B4D3EF49
:1009300004F0D10E305CD8B4D3EF04F0D20E305CAA
:10094000D8B4D3EF04F0410E305CD8B4D3EF04F048
:10095000420E305CD8B4D3EF04F0430E305CD8B410
:10096000D3EF04F0450E305CD8B4D3EF04F0460E5C
:10097000305CD8B4D3EF04F0470E305CD8B4D3EF7A
:1009800004F0490E305CD8B4D3EF04F04A0E305C6A
:10099000D8B4D3EF04F04B0E305CD8B4D3EF04F0EE
:1009A0001200348012003006D1EF04F033B412008C
:1009B000FC0E305CD8B408EF05F0FD0E305CD8B406
:1009C00015EF05F0FE0E305CD8B415EF05F0FF0E04
:1009D000305CD8B415EF05F0C70E305CD8B42FEFFB
:1009E00005F0C80E305CD8B412EF04F0D00E305CC5
:1009F000D8B421EF05F0D10E305CD8B421EF05F06A
:100A0000D20E305CD8B421EF05F012003480120011
:100A1000020E316EEA6A610EE96EE26A400EE96E1C
:100A2000DA6A470ED96E15EF05F0040E206ED890E5
:100A300030362006000E205CD8A417EF05F006EF34
:100A400005F0010E316E020E206ED8903036200671
:100A5000000E205CD8A425EF05F006EF05F012EF9C
:100A600004F0686A696A6A6A640E505ED8A8682AE7
:100A7000D8A8FBD750260A0E505ED8A8692AD8A855
:100A8000FBD75026010E505ED8A86A2AD8A8FBD7FB
:100A900051A01200050E6A266A500A0E6A5CD8B888
:100AA00009D06A6E692A69500A0E695CD8B802D00A
:100AB000696E682A050E692669500A0E695CD8B805
:100AC00002D0696E682A020E6826030E896E120033
:100AD000C7EC05F0C7EC05F0C7EC05F08A94300EC2
:100AE000B4EC05F0C1EC05F0C1EC05F0C7EC05F085
:100AF000C1EC05F0200EB4EC05F0C1EC05F0C7EC3C
:100B000005F0280E94EC05F0C7EC05F00F0E94EC00
:100B100005F0C7EC05F0060E94EC05F0C7EC05F007
:100B2000BAEC05F08A8412008A94206EB4EC05F0C9
:100B3000C1EC05F02038B4EC05F0C1EC05F0120072
:100B40008A84206EB4EC05F0C1EC05F02038B4ECDA
:100B500005F0C1EC05F012000800F550A0EC05F01E
:100B60000B00F550FBE11200F00B81120F0981140C
:100B70008A6E12008A94010E94EC05F0C7EC05F021
:100B800012008A8600008A96D5EC05F01200C20E8B
:100B9000256E0A0E266E252ECFEF05F0262ECBEF02
:100BA00005F0D3EF05F000001200230E256E252E70
:100BB000D7EF05F012005A0E256ECD0E266E160EDA
:100BC0002E6E252EE5EF05F0262EE8EF05F02E2EF1
:0C0BD000E1EF05F000001200ECEF05F072
:020000040030CA
:0100010002FC
:010002001FDE
:010003001EDE
:010005008179
:010006008178
:010008000FE8
:01000900C036
:01000A000FE6
:01000B00E014
:01000C000FE4
:01000D0040B2
:00000001FF
