:020000040000FA
:04000000CAEF00F053
:020004000000FA
:04000800F4EF04F01D
:08001800100020202020202010
:100020005354415254202020203E00003C202020E8
:1000300044415441204C4F472020203E00003C20AA
:100040005245534554204D454D4F5259203E0000D6
:100050003C2053455420444154452F54494D45209C
:100060000000494E5350454354494E472E2020200E
:1000700020200000494E5350454354494E472E2EF0
:10008000202020200000494E5350454354494E47FC
:100090002E2E2E2020200000494E53504543544917
:1000A0004E472E2E2E2E20200000494E5350454301
:1000B00054494E472E2E2E2E2E200000494E5350CE
:1000C000454354494E472E2E2E2E2E2E00002D2D08
:1000D0002D2D434F4D504C4554452D2D2D2D0000B9
:1000E0002020205341564520444154412020203EA9
:1000F00000003C494E535045435420414741494E2E
:100100002020000020202020204441544120233181
:100110002020203E00003C2020202044415441204B
:1001200023322020203E00003C2020202044415447
:100130004120233320202020000020415245205917
:100140004F5520535552453F202000004E554D201D
:1001500042415252454C5320202020200000424171
:100160005252454C2044495354414E4345200000CF
:1001700042415252454C204845494748542020208E
:1001800000005741544552204C4556454C202020F4
:1001900020200000926A936A946A956A966A806A3F
:1001A000816A826A836A846AFF0E946E400E306EA2
:1001B00090EC04F0F3EC00F0E8EC04F082CF32F0C5
:1001C00032B407EC04F032B0B4EC03F032B261ECBC
:1001D00003F032B6C1EC02F034B0F3EC00F034902E
:1001E00032C033F0E9D7DBEC04F0FC0E305CD8B45D
:1001F0008CEC01F0FD0E305CD8B498EC01F0FE0EF2
:10020000305CD8B4A4EC01F0FF0E305CD8B4B0EC94
:1002100001F0C00E305CD8B4BCEC01F0C10E305C13
:10022000D8B4C8EC01F0C20E305CD8B4D4EC01F004
:10023000C30E305CD8B4E0EC01F0C40E305CD8B42E
:10024000ECEC01F0C50E305CD8B4F8EC01F0C60E51
:10025000305CD8B404EC02F0C70E305CD8B410ECBB
:1002600002F0C80E305CD8B41CEC02F0D00E305C4A
:10027000D8B428EC02F0D10E305CD8B434EC02F0E3
:10028000D20E305CD8B440EC02F0E00E305CD8B452
:100290004CEC02F0F00E305CD8B44CEC02F0400EA6
:1002A000305CD8B459EC02F0410E305CD8B465EC47
:1002B00002F0420E305CD8B471EC02F0430E305CB8
:1002C000D8B4B5EC02F0440E305CD8B459EC02F06E
:1002D000450E305CD8B465EC02F0460E305CD8B404
:1002E00071EC02F0470E305CD8B4B5EC02F0480E69
:1002F000305CD8B459EC02F0490E305CD8B465ECEF
:1003000002F04A0E305CD8B471EC02F04B0E305C57
:10031000D8B4B5EC02F01200800EAAEC04F0000E86
:10032000F86E000EF76E1A0EF66ECAEC04F01200AC
:10033000800EAAEC04F0000EF86E000EF76E2C0E84
:10034000F66ECAEC04F01200800EAAEC04F0000E67
:10035000F86E000EF76E3E0EF66ECAEC04F0120058
:10036000800EAAEC04F0000EF86E000EF76E500E30
:10037000F66ECAEC04F01200800EAAEC04F0000E37
:10038000F86E000EF76E620EF66ECAEC04F0120004
:10039000800EAAEC04F0000EF86E000EF76E740EDC
:1003A000F66ECAEC04F01200800EAAEC04F0000E07
:1003B000F86E000EF76E860EF66ECAEC04F01200B0
:1003C000800EAAEC04F0000EF86E000EF76E980E88
:1003D000F66ECAEC04F01200800EAAEC04F0000ED7
:1003E000F86E000EF76EAA0EF66ECAEC04F012005C
:1003F000800EAAEC04F0000EF86E000EF76EBC0E34
:10040000F66ECAEC04F01200800EAAEC04F0000EA6
:10041000F86E000EF76ECE0EF66ECAEC04F0120007
:10042000800EAAEC04F0000EF86E000EF76EE00EDF
:10043000F66ECAEC04F01200800EAAEC04F0000E76
:10044000F86E000EF76EF20EF66ECAEC04F01200B3
:10045000800EAAEC04F0000EF86E010EF76E040E8A
:10046000F66ECAEC04F01200800EAAEC04F0000E46
:10047000F86E010EF76E160EF66ECAEC04F012005E
:10048000800EAAEC04F0000EF86E010EF76E280E36
:10049000F66ECAEC04F01200800EAAEC04F0000E16
:1004A000F86E010EF76E3A0EF66ECAEC04F012000A
:1004B0001200800EAAEC04F0000EF86E010EF76E2A
:1004C0004C0EF66ECAEC04F01200800EAAEC04F09A
:1004D000000EF86E010EF76E5E0EF66ECAEC04F0BA
:1004E0001200800EAAEC04F0000EF86E010EF76EFA
:1004F000700EF66ECAEC04F0356A53C000F04F0E71
:10050000516E4F0E506E59EC04F035508009AAEC34
:1005100004F06850300FBAEC04F0352A35508009E9
:10052000AAEC04F06950300FBAEC04F0352A3550CB
:100530008009AAEC04F07050300FBAEC04F0352AB0
:1005400035508009AAEC04F0630EBAEC04F0352AA9
:1005500035508009AAEC04F06D0EBAEC04F0352A8F
:10056000352A5132002ECDD71200800EAAEC04F0AD
:10057000000EF86E010EF76E820EF66ECAEC04F0F5
:10058000120033B61200C00E305CD8B45DEF03F039
:10059000C10E305CD8B45DEF03F0C20E305CD8B44D
:1005A0005DEF03F0C30E305CD8B45DEF03F0C40E12
:1005B000305CD8B45DEF03F0C50E305CD8B45DEFAD
:1005C00003F0C70E305CD8B45DEF03F0C80E305CAA
:1005D000D8B45DEF03F0D00E305CD8B443EF03F035
:1005E000D10E305CD8B443EF03F0D30E305CD8B4F6
:1005F00043EF03F0E00E305CD8B443EF03F0F00EAD
:10060000305CD8B443EF03F0400E305CD8B44FEF09
:1006100003F0410E305CD8B44FEF03F0420E305C73
:10062000D8B44FEF03F0430E305CD8B44FEF03F073
:10063000500E305CD8B44FEF03F0510E305CD8B49C
:100640004FEF03F0520E305CD8B44FEF03F0530E6F
:10065000305CD8B44FEF03F0600E305CD8B44FEF8D
:1006600003F0610E305CD8B44FEF03F0620E305CE3
:10067000D8B44FEF03F0630E305CD8B44FEF03F003
:10068000120034801200040E206ED8803032200612
:10069000000E205CD8A445EF03F041EF03F0000EFC
:1006A000316E020E206ED88030322006000E205CA3
:1006B000D8A453EF03F041EF03F0040E316E43EF83
:1006C00003F033B21200FC0E305CD8B4B1EF03F08B
:1006D000FD0E305CD8B4B1EF03F0FE0E305CD8B440
:1006E000B1EF03F0C70E305CD8B4B1EF03F0D00E19
:1006F000305CD8B4B1EF03F0D10E305CD8B4B1EFB8
:1007000003F0400E305CD8B4B1EF03F0410E305C22
:10071000D8B4B1EF03F0420E305CD8B4B1EF03F0BF
:10072000440E305CD8B4B1EF03F0450E305CD8B461
:10073000B1EF03F0460E305CD8B4B1EF03F0480ED1
:10074000305CD8B4B1EF03F0490E305CD8B4B1EFEF
:1007500003F04A0E305CD8B4B1EF03F012003480DD
:100760001200302AAFEF03F033B01200FD0E305C00
:10077000D8B404EF04F0FE0E305CD8B404EF04F0FB
:10078000FF0E305CD8B404EF04F0C80E305CD8B46F
:1007900004EF04F0D10E305CD8B404EF04F0D20EB4
:1007A000305CD8B404EF04F0410E305CD8B404EFF0
:1007B00004F0420E305CD8B404EF04F0430E305C19
:1007C000D8B404EF04F0450E305CD8B404EF04F064
:1007D000460E305CD8B404EF04F0470E305CD8B459
:1007E00004EF04F0490E305CD8B404EF04F04A0E74
:1007F000305CD8B404EF04F04B0E305CD8B404EF96
:1008000004F0120034801200300602EF04F033B41A
:100810001200FC0E305CD8B439EF04F0FD0E305CF1
:10082000D8B43DEF04F0FE0E305CD8B43DEF04F0D8
:10083000FF0E305CD8B43DEF04F0C70E305CD8B486
:1008400057EF04F0C80E305CD8B443EF03F0D00E7D
:10085000305CD8B449EF04F0D10E305CD8B449EF25
:1008600004F0D20E305CD8B449EF04F012003480AA
:100870001200020E316E3DEF04F0040E206ED8908F
:1008800030362006000E205CD8A43FEF04F037EF8E
:1008900004F0010E316E020E206ED8903036200624
:1008A000000E205CD8A44DEF04F037EF04F043EFC6
:1008B00003F0686A696A706A640E505ED8A8682A94
:1008C000D8A8FBD750260A0E505ED8A8692AD8A807
:1008D000FBD75026010E505ED8A8702AD8A8FBD7A7
:1008E00051A01200050E702670500A0E705CD8B828
:1008F00009D0706E692A69500A0E695CD8B802D0B6
:10090000696E682A050E692669500A0E695CD8B8B6
:1009100002D0696E682A020E6826030E896E1200E4
:10092000E8EC04F0E8EC04F0330EAAEC04F0330E2B
:10093000AAEC04F0330EAAEC04F0280EAAEC04F0A2
:100940000C0EAAEC04F0060EAAEC04F0010EAAECC0
:1009500004F012008394206ED2EC04F08386000031
:1009600083962038D2EC04F0838600008396E8EC6E
:1009700004F012008384206ED2EC04F08386000021
:1009800083962038D2EC04F0838600008396EFEC47
:1009900004F012000800F550BAEC04F00B00F5501A
:1009A000FBE1120083CF21F0F00B21120F09211679
:1009B00021C083FF1200C00EAAEC04F0010EAAECC5
:1009C00004F0800EAAEC04F0010EAAEC04F0120070
:1009D0006E0E266EEFEC04F0262EFCD71200230ECE
:0A09E000256E252EFED71200FFD76A
:020000040030CA
:0100010002FC
:010002001FDE
:010003001EDE
:010005008179
:010006008178
:010008000FE8
:01000900C036
:01000A000FE6
:01000B00E014
:01000C000FE4
:01000D0040B2
:00000001FF
