:020000040000FA
:04000000CAEF00F053
:020004000000FA
:04000800ECEF05F024
:08001800100020202020202010
:100020005354415254202020203E00003C202020E8
:1000300044415441204C4F472020203E00003C20AA
:100040005245534554204D454D4F5259203E0000D6
:100050003C2053455420444154452F54494D45209C
:100060000000494E5350454354494E472E2020200E
:1000700020200000494E5350454354494E472E2EF0
:10008000202020200000494E5350454354494E47FC
:100090002E2E2E2020200000494E53504543544917
:1000A0004E472E2E2E2E20200000494E5350454301
:1000B00054494E472E2E2E2E2E200000494E5350CE
:1000C000454354494E472E2E2E2E2E2E00002D2D08
:1000D0002D2D434F4D504C4554452D2D2D2D0000B9
:1000E0002020205341564520444154412020203EA9
:1000F00000003C494E535045435420414741494E2E
:100100002020000020202020204441544120233181
:100110002020203E00003C2020202044415441204B
:1001200023322020203E00003C2020202044415447
:100130004120233320202020000020415245205917
:100140004F5520535552453F202000004E554D201D
:1001500042415252454C5320202020200000424171
:100160005252454C2044495354414E4345200000CF
:1001700042415252454C204845494748542020208E
:1001800000005741544552204C4556454C202020F4
:1001900020200000926A936A946A956A966A806A3F
:1001A000816A826A836A846A948AFF0E956E968059
:1001B00096829684400E306E64EC05F09EEC01F061
:1001C000256A266A276A286A296A2A6A2B6A2C6A9B
:1001D0002D6A82CF3BF083CF36F084CF38F0010E0A
:1001E000315CD8B423EC01F0020E315CD8B440ECA1
:1001F00001F0040E315CD8B480EC01F0080E315CE3
:10020000D8B494EC01F0100E315CD8B48AEC01F053
:1002100036C032F032B4D2EC04F032B07FEC04F0ED
:1002200032B22CEC04F032B68CEC03F034B09EEC1D
:1002300001F034903BC03CF036C037F038C039F0A4
:1002400032C033F0C6D7282AFF0E285CD8A412008B
:10025000000E286E2C2AFF0E2C5CD8A41200000E73
:100260002C6E2D2A040E2D5CD8A41200110E3A5CBF
:10027000D8B43DEC01F03A061200010E3A6E1200BD
:100280008992F10E275CD8B408D03C0E275CD8B414
:1002900001D008D089808A8005D08B80000E276E1F
:1002A000899000D0272A00D084A003D0040E316E9C
:1002B0001FD038A21DD039B21BD054C0EEFF84A489
:1002C00001D003D0E6808B8403D0E6908B9400D0DD
:1002D00036A808D036AA08D009D036AC03D036AE3E
:1002E00003D004D0DE8004D0DE8202D0DE8400D0D1
:1002F00067EC02F03BAA12003CBA1200542A12002A
:10030000899089828A823BA2F3D73CB2F1D7080E4A
:10031000316EEED7899089828A923BA2E9D73CB2AE
:10032000E7D7020E316EE4D789808A808992E0D7C0
:1003300089808A90899267EC02F01200D3EC05F074
:10034000FC0E305CD8B437EC02F0FD0E305CD8B453
:1003500043EC02F0FE0E305CD8B44FEC02F0FF0E1E
:10036000305CD8B45BEC02F0C00E305CD8B486ECE4
:1003700002F0C10E305CD8B492EC02F0C20E305CD8
:10038000D8B49EEC02F0C30E305CD8B4AAEC02F0F4
:10039000C40E305CD8B4B6EC02F0C50E305CD8B4F4
:1003A000C2EC02F0C60E305CD8B4CEEC02F0C70E40
:1003B000305CD8B4DAEC02F0C80E305CD8B4E6ECAD
:1003C00002F0D00E305CD8B4F2EC02F0D10E305C0A
:1003D000D8B4FEEC02F0D20E305CD8B40AEC03F0D4
:1003E000E00E305CD8B416EC03F0F00E305CD8B4FC
:1003F00022EC03F0400E305CD8B423EC03F0410E45
:10040000305CD8B42FEC03F0420E305CD8B43BEC37
:1004100003F0430E305CD8B480EC03F0440E305C43
:10042000D8B423EC03F0450E305CD8B42FEC03F0C5
:10043000460E305CD8B43BEC03F0470E305CD8B4C9
:1004400080EC03F0480E305CD8B423EC03F0490E86
:10045000305CD8B42FEC03F04A0E305CD8B43BECDF
:1004600003F04B0E305CD8B480EC03F01200800E29
:10047000A2EC05F0000EF86E000EF76E1A0EF66E86
:10048000C2EC05F01200800EA2EC05F0000EF86E32
:10049000000EF76E2C0EF66EC2EC05F01200800E08
:1004A000A2EC05F0000EF86E000EF76E3E0EF66E32
:1004B000C2EC05F01200800EA2EC05F0000EF86E02
:1004C000000EF76E500EF66EC2EC05F01200292AEF
:1004D000FF0E295CD8A41200296A2A2A3F0E2A5C42
:1004E000D8A412002A6A2B2A020E2B5CD8A4120070
:1004F0002B6AC50E305CD8B404D0302A9EEC01F0D3
:100500001200C00E306E9EEC01F01200800EA2ECC4
:1005100005F0000EF86E000EF76E620EF66EC2EC7D
:1005200005F01200800EA2EC05F0000EF86E000E31
:10053000F76E740EF66EC2EC05F01200800EA2EC9F
:1005400005F0000EF86E000EF76E860EF66EC2EC29
:1005500005F01200800EA2EC05F0000EF86E000E01
:10056000F76E980EF66EC2EC05F01200800EA2EC4B
:1005700005F0000EF86E000EF76EAA0EF66EC2ECD5
:1005800005F01200800EA2EC05F0000EF86E000ED1
:10059000F76EBC0EF66EC2EC05F01200800EA2ECF7
:1005A00005F0000EF86E000EF76ECE0EF66EC2EC81
:1005B00005F01200800EA2EC05F0000EF86E000EA1
:1005C000F76EE00EF66EC2EC05F01200800EA2ECA3
:1005D00005F0000EF86E000EF76EF20EF66EC2EC2D
:1005E00005F01200800EA2EC05F0000EF86E010E70
:1005F000F76E040EF66EC2EC05F01200800EA2EC4F
:1006000005F0000EF86E010EF76E160EF66EC2ECD7
:1006100005F01200800EA2EC05F0000EF86E010E3F
:10062000F76E280EF66EC2EC05F01200800EA2ECFA
:1006300005F0000EF86E010EF76E3A0EF66EC2EC83
:1006400005F012001200C00EA2EC05F0000EF86ECC
:10065000010EF76E4C0EF66EC2EC05F01200800E25
:10066000A2EC05F0000EF86E010EF76E5E0EF66E4F
:10067000C2EC05F01200800EA2EC05F0000EF86E40
:10068000010EF76E700EF66EC2EC05F03AC035F052
:1006900052C053F04F0E516E4F0E506E2DEC05F0C0
:1006A00035508009A2EC05F06850300FB2EC05F02F
:1006B000352A35508009A2EC05F06950300FB2ECB4
:1006C00005F0352A35508009A2EC05F06A50300F4C
:1006D000B2EC05F0352A35508009A2EC05F0630E26
:1006E000B2EC05F0352A35508009A2EC05F06D0E0C
:1006F000B2EC05F0352A352A5132532ECDD71200EF
:10070000800EA2EC05F0000EF86E010EF76E820E60
:10071000F66EC2EC05F0120033B61200C00E305C6B
:10072000D8B428EF04F0C10E305CD8B428EF04F040
:10073000C20E305CD8B428EF04F0C30E305CD8B4DD
:1007400028EF04F0C40E305CD8B428EF04F0C50ED6
:10075000305CD8B428EF04F0C70E305CD8B428EF72
:1007600004F0C80E305CD8B428EF04F0D00E305C32
:10077000D8B40EEF04F0D10E305CD8B40EEF04F014
:10078000D30E305CD8B40EEF04F0E00E305CD8B479
:100790000EEF04F0F00E305CD8B40EEF04F0400E13
:1007A000305CD8B41AEF04F0410E305CD8B41AEFC4
:1007B00004F0420E305CD8B41AEF04F0430E305C03
:1007C000D8B41AEF04F0500E305CD8B41AEF04F02D
:1007D000510E305CD8B41AEF04F0520E305CD8B42D
:1007E0001AEF04F0530E305CD8B41AEF04F0600E28
:1007F000305CD8B41AEF04F0610E305CD8B41AEF54
:1008000004F0620E305CD8B41AEF04F0630E305C72
:10081000D8B41AEF04F0120034801200040E206ED7
:10082000D88030322006000E205CD8A410EF04F0EF
:100830000CEF04F0000E316E020E206ED8803032C4
:100840002006000E205CD8A41EEF04F00CEF04F08C
:10085000000E316E0EEF04F033B21200FC0E305C6D
:10086000D8B47CEF04F0FD0E305CD8B47CEF04F01B
:10087000FE0E305CD8B47CEF04F0C70E305CD8B408
:100880007CEF04F0D00E305CD8B47CEF04F0D10ED5
:10089000305CD8B47CEF04F0400E305CD8B47CEF10
:1008A00004F0410E305CD8B47CEF04F0420E305CB2
:1008B000D8B47CEF04F0440E305CD8B47CEF04F084
:1008C000450E305CD8B47CEF04F0460E305CD8B4F2
:1008D0007CEF04F0480E305CD8B47CEF04F0490E95
:1008E000305CD8B47CEF04F04A0E305CD8B47CEFB6
:1008F00004F0120034801200302A7AEF04F033B092
:100900001200FD0E305CD8B4CFEF04F0FE0E305C68
:10091000D8B4CFEF04F0FF0E305CD8B4CFEF04F0C2
:10092000C80E305CD8B4CFEF04F0D10E305CD8B430
:10093000CFEF04F0D20E305CD8B4CFEF04F0410E0C
:10094000305CD8B4CFEF04F0420E305CD8B4CFEFB7
:1009500004F0430E305CD8B4CFEF04F0450E305CA9
:10096000D8B4CFEF04F0460E305CD8B4CFEF04F02B
:10097000470E305CD8B4CFEF04F0490E305CD8B4E9
:10098000CFEF04F04A0E305CD8B4CFEF04F04B0E3A
:10099000305CD8B4CFEF04F012003480120030067F
:1009A000CDEF04F033B41200FC0E305CD8B404EF89
:1009B00005F0FD0E305CD8B411EF05F0FE0E305C92
:1009C000D8B411EF05F0FF0E305CD8B411EF05F08C
:1009D000C70E305CD8B42BEF05F0C80E305CD8B42D
:1009E0000EEF04F0D00E305CD8B41DEF05F0D10E40
:1009F000305CD8B41DEF05F0D20E305CD8B41DEFDA
:100A000005F0120034801200020E316EEA6A610EA7
:100A1000E96EE26A400EE96EDA6A470ED96E11EFAE
:100A200005F0040E206ED89030362006000E205CB3
:100A3000D8A413EF05F002EF05F0010E316E020E9F
:100A4000206ED89030362006000E205CD8A421EF0E
:100A500005F002EF05F00EEF04F0686A696A6A6A51
:100A6000640E505ED8A8682AD8A8FBD750260A0E74
:100A7000505ED8A8692AD8A8FBD75026010E505E30
:100A8000D8A86A2AD8A8FBD751A01200050E6A265A
:100A90006A500A0E6A5CD8B809D06A6E692A695031
:100AA0000A0E695CD8B802D0696E682A050E6926FC
:100AB00069500A0E695CD8B802D0696E682A020EC5
:100AC0006826030E896E1200E0EC05F0E0EC05F0FC
:100AD000E0EC05F0E0EC05F0E0EC05F0E0EC05F012
:100AE000E0EC05F0E0EC05F0E0EC05F0E0EC05F002
:100AF000E0EC05F0E0EC05F0E0EC05F0E0EC05F0F2
:100B0000E0EC05F0E0EC05F0E0EC05F0E0EC05F0E1
:100B1000E0EC05F0E0EC05F0330EA2EC05F0330E4E
:100B2000A2EC05F0330EA2EC05F0280EA2EC05F0C5
:100B30000C0EA2EC05F0060EA2EC05F0010EA2ECE4
:100B400005F012008194206ECAEC05F08186000049
:100B500081962038CAEC05F0818600008196E0EC91
:100B600005F012008184206ECAEC05F08186000039
:100B700081962038CAEC05F0818600008196E7EC6A
:100B800005F012000800F550B2EC05F00B00F5502E
:100B9000FBE1120081CF21F0F00B21120F09211689
:100BA00021C08AFF1200C00EA2EC05F0010EA2ECDB
:100BB00005F0800EA2EC05F0010EA2EC05F012008B
:100BC0006E0E266EE7EC05F0262EFCD71200230EE3
:0A0BD000256E252EFED71200FFD778
:020000040030CA
:0100010002FC
:010002001FDE
:010003001EDE
:010005008179
:010006008178
:010008000FE8
:01000900C036
:01000A000FE6
:01000B00E014
:01000C000FE4
:01000D0040B2
:00000001FF
